{
  "contractName": "VoteGovernor",
  "abi": [
    {
      "inputs": [],
      "stateMutability": "nonpayable",
      "type": "constructor"
    },
    {
      "anonymous": false,
      "inputs": [
        {
          "indexed": false,
          "internalType": "address",
          "name": "from",
          "type": "address"
        },
        {
          "indexed": false,
          "internalType": "address",
          "name": "to",
          "type": "address"
        },
        {
          "indexed": false,
          "internalType": "uint256",
          "name": "tokenId",
          "type": "uint256"
        }
      ],
      "name": "Vote",
      "type": "event"
    },
    {
      "inputs": [],
      "name": "deployer",
      "outputs": [
        {
          "internalType": "address",
          "name": "",
          "type": "address"
        }
      ],
      "stateMutability": "view",
      "type": "function",
      "constant": true
    },
    {
      "inputs": [
        {
          "internalType": "bytes32",
          "name": "",
          "type": "bytes32"
        }
      ],
      "name": "presidentialCandidates",
      "outputs": [
        {
          "internalType": "uint256",
          "name": "",
          "type": "uint256"
        }
      ],
      "stateMutability": "view",
      "type": "function",
      "constant": true
    },
    {
      "inputs": [
        {
          "internalType": "bytes32",
          "name": "",
          "type": "bytes32"
        },
        {
          "internalType": "address",
          "name": "",
          "type": "address"
        }
      ],
      "name": "presidentialVotesReceived",
      "outputs": [
        {
          "internalType": "bool",
          "name": "",
          "type": "bool"
        }
      ],
      "stateMutability": "view",
      "type": "function",
      "constant": true
    },
    {
      "inputs": [
        {
          "internalType": "bytes32",
          "name": "",
          "type": "bytes32"
        }
      ],
      "name": "senatorialCandidates",
      "outputs": [
        {
          "internalType": "uint256",
          "name": "",
          "type": "uint256"
        }
      ],
      "stateMutability": "view",
      "type": "function",
      "constant": true
    },
    {
      "inputs": [
        {
          "internalType": "bytes32",
          "name": "",
          "type": "bytes32"
        },
        {
          "internalType": "address",
          "name": "",
          "type": "address"
        }
      ],
      "name": "senatorialVotesReceived",
      "outputs": [
        {
          "internalType": "bool",
          "name": "",
          "type": "bool"
        }
      ],
      "stateMutability": "view",
      "type": "function",
      "constant": true
    },
    {
      "inputs": [
        {
          "internalType": "bytes32",
          "name": "",
          "type": "bytes32"
        }
      ],
      "name": "vicePresidentialCandidates",
      "outputs": [
        {
          "internalType": "uint256",
          "name": "",
          "type": "uint256"
        }
      ],
      "stateMutability": "view",
      "type": "function",
      "constant": true
    },
    {
      "inputs": [
        {
          "internalType": "bytes32",
          "name": "",
          "type": "bytes32"
        },
        {
          "internalType": "address",
          "name": "",
          "type": "address"
        }
      ],
      "name": "vicePresidentialVotesReceived",
      "outputs": [
        {
          "internalType": "bool",
          "name": "",
          "type": "bool"
        }
      ],
      "stateMutability": "view",
      "type": "function",
      "constant": true
    },
    {
      "inputs": [],
      "name": "voteToken",
      "outputs": [
        {
          "internalType": "contract VoteToken",
          "name": "",
          "type": "address"
        }
      ],
      "stateMutability": "view",
      "type": "function",
      "constant": true
    },
    {
      "inputs": [
        {
          "internalType": "bytes32[]",
          "name": "candidateList",
          "type": "bytes32[]"
        }
      ],
      "name": "setPresidentialCandidates",
      "outputs": [],
      "stateMutability": "nonpayable",
      "type": "function"
    },
    {
      "inputs": [
        {
          "internalType": "bytes32[]",
          "name": "candidateList",
          "type": "bytes32[]"
        }
      ],
      "name": "setVicePresidentialCandidates",
      "outputs": [],
      "stateMutability": "nonpayable",
      "type": "function"
    },
    {
      "inputs": [
        {
          "internalType": "bytes32[]",
          "name": "candidateList",
          "type": "bytes32[]"
        }
      ],
      "name": "setSenatorialCandidates",
      "outputs": [],
      "stateMutability": "nonpayable",
      "type": "function"
    },
    {
      "inputs": [
        {
          "internalType": "address",
          "name": "to",
          "type": "address"
        }
      ],
      "name": "issueToken",
      "outputs": [],
      "stateMutability": "nonpayable",
      "type": "function"
    },
    {
      "inputs": [
        {
          "internalType": "bytes32",
          "name": "name",
          "type": "bytes32"
        }
      ],
      "name": "votePresident",
      "outputs": [],
      "stateMutability": "payable",
      "type": "function",
      "payable": true
    },
    {
      "inputs": [
        {
          "internalType": "bytes32",
          "name": "name",
          "type": "bytes32"
        }
      ],
      "name": "voteVicePresident",
      "outputs": [],
      "stateMutability": "payable",
      "type": "function",
      "payable": true
    },
    {
      "inputs": [
        {
          "internalType": "bytes32",
          "name": "name",
          "type": "bytes32"
        }
      ],
      "name": "voteSenator",
      "outputs": [],
      "stateMutability": "payable",
      "type": "function",
      "payable": true
    }
  ],
  "bytecode": "0x608060405234801561001057600080fd5b5060405161001d906100bf565b604051809103906000f080158015610039573d6000803e3d6000fd5b506000806101000a81548173ffffffffffffffffffffffffffffffffffffffff021916908373ffffffffffffffffffffffffffffffffffffffff16021790555033600160006101000a81548173ffffffffffffffffffffffffffffffffffffffff021916908373ffffffffffffffffffffffffffffffffffffffff1602179055506100cd565b6138a28062001c1883390190565b611b3b80620000dd6000396000f3fe6080604052600436106100e85760003560e01c80639fb96d641161008a578063db149de511610059578063db149de51461030b578063dc3281fd14610327578063e284ca8414610343578063eece24791461036c576100e8565b80639fb96d641461023d578063a0567ba81461027a578063c906b10f146102a3578063d5f39488146102e0576100e8565b80633d6459ba116100c65780633d6459ba14610192578063528a9fa3146101ae57806389034082146101d7578063966e735c14610200576100e8565b8063160d66ae146100ed5780632b194188146101185780633aa175bc14610155575b600080fd5b3480156100f957600080fd5b506101026103a9565b60405161010f919061130e565b60405180910390f35b34801561012457600080fd5b5061013f600480360381019061013a91906113b1565b6103cd565b60405161014c919061140c565b60405180910390f35b34801561016157600080fd5b5061017c60048036038101906101779190611427565b6103fc565b604051610189919061146d565b60405180910390f35b6101ac60048036038101906101a79190611427565b610414565b005b3480156101ba57600080fd5b506101d560048036038101906101d091906115e1565b610682565b005b3480156101e357600080fd5b506101fe60048036038101906101f9919061162a565b610770565b005b34801561020c57600080fd5b50610227600480360381019061022291906113b1565b6109b8565b604051610234919061140c565b60405180910390f35b34801561024957600080fd5b50610264600480360381019061025f9190611427565b6109e7565b604051610271919061146d565b60405180910390f35b34801561028657600080fd5b506102a1600480360381019061029c91906115e1565b6109ff565b005b3480156102af57600080fd5b506102ca60048036038101906102c59190611427565b610aed565b6040516102d7919061146d565b60405180910390f35b3480156102ec57600080fd5b506102f5610b05565b6040516103029190611666565b60405180910390f35b61032560048036038101906103209190611427565b610b2b565b005b610341600480360381019061033c9190611427565b610d99565b005b34801561034f57600080fd5b5061036a600480360381019061036591906115e1565b611007565b005b34801561037857600080fd5b50610393600480360381019061038e91906113b1565b6110f5565b6040516103a0919061140c565b60405180910390f35b60008054906101000a900473ffffffffffffffffffffffffffffffffffffffff1681565b60066020528160005260406000206020528060005260406000206000915091509054906101000a900460ff1681565b60046020528060005260406000206000915090505481565b600060046000838152602001908152602001600020541161046a576040517f08c379a0000000000000000000000000000000000000000000000000000000008152600401610461906116de565b60405180910390fd5b60008060009054906101000a900473ffffffffffffffffffffffffffffffffffffffff1673ffffffffffffffffffffffffffffffffffffffff166370a08231336040518263ffffffff1660e01b81526004016104c69190611666565b602060405180830381865afa1580156104e3573d6000803e3d6000fd5b505050506040513d601f19601f82011682018060405250810190610507919061172a565b11610547576040517f08c379a000000000000000000000000000000000000000000000000000000000815260040161053e906117a3565b60405180910390fd5b6007600082815260200190815260200160002060003373ffffffffffffffffffffffffffffffffffffffff1673ffffffffffffffffffffffffffffffffffffffff16815260200190815260200160002060009054906101000a900460ff16156105e5576040517f08c379a00000000000000000000000000000000000000000000000000000000081526004016105dc90611835565b60405180910390fd5b60016007600083815260200190815260200160002060003373ffffffffffffffffffffffffffffffffffffffff1673ffffffffffffffffffffffffffffffffffffffff16815260200190815260200160002060006101000a81548160ff02191690831515021790555060046000828152602001908152602001600020600081548092919061067290611884565b919050555061067f611124565b50565b3373ffffffffffffffffffffffffffffffffffffffff16600160009054906101000a900473ffffffffffffffffffffffffffffffffffffffff1673ffffffffffffffffffffffffffffffffffffffff1614610712576040517f08c379a000000000000000000000000000000000000000000000000000000000815260040161070990611919565b60405180910390fd5b60005b81518161ffff16101561076c57600160046000848461ffff168151811061073f5761073e611939565b5b6020026020010151815260200190815260200160002081905550808061076490611976565b915050610715565b5050565b3373ffffffffffffffffffffffffffffffffffffffff16600160009054906101000a900473ffffffffffffffffffffffffffffffffffffffff1673ffffffffffffffffffffffffffffffffffffffff1614610800576040517f08c379a00000000000000000000000000000000000000000000000000000000081526004016107f790611919565b60405180910390fd5b600e600860008373ffffffffffffffffffffffffffffffffffffffff1673ffffffffffffffffffffffffffffffffffffffff16815260200190815260200160002060009054906101000a900460ff1660ff1610610892576040517f08c379a000000000000000000000000000000000000000000000000000000000815260040161088990611a13565b60405180910390fd5b60005b600e8160ff1610156109b45760008054906101000a900473ffffffffffffffffffffffffffffffffffffffff1673ffffffffffffffffffffffffffffffffffffffff166340d097c3836040518263ffffffff1660e01b81526004016108fa9190611666565b600060405180830381600087803b15801561091457600080fd5b505af1158015610928573d6000803e3d6000fd5b50505050600860008373ffffffffffffffffffffffffffffffffffffffff1673ffffffffffffffffffffffffffffffffffffffff168152602001908152602001600020600081819054906101000a900460ff168092919061098890611a40565b91906101000a81548160ff021916908360ff1602179055505080806109ac90611a40565b915050610895565b5050565b60076020528160005260406000206020528060005260406000206000915091509054906101000a900460ff1681565b60036020528060005260406000206000915090505481565b3373ffffffffffffffffffffffffffffffffffffffff16600160009054906101000a900473ffffffffffffffffffffffffffffffffffffffff1673ffffffffffffffffffffffffffffffffffffffff1614610a8f576040517f08c379a0000000000000000000000000000000000000000000000000000000008152600401610a8690611919565b60405180910390fd5b60005b81518161ffff161015610ae957600160036000848461ffff1681518110610abc57610abb611939565b5b60200260200101518152602001908152602001600020819055508080610ae190611976565b915050610a92565b5050565b60026020528060005260406000206000915090505481565b600160009054906101000a900473ffffffffffffffffffffffffffffffffffffffff1681565b6000600260008381526020019081526020016000205411610b81576040517f08c379a0000000000000000000000000000000000000000000000000000000008152600401610b78906116de565b60405180910390fd5b60008060009054906101000a900473ffffffffffffffffffffffffffffffffffffffff1673ffffffffffffffffffffffffffffffffffffffff166370a08231336040518263ffffffff1660e01b8152600401610bdd9190611666565b602060405180830381865afa158015610bfa573d6000803e3d6000fd5b505050506040513d601f19601f82011682018060405250810190610c1e919061172a565b11610c5e576040517f08c379a0000000000000000000000000000000000000000000000000000000008152600401610c55906117a3565b60405180910390fd5b6005600082815260200190815260200160002060003373ffffffffffffffffffffffffffffffffffffffff1673ffffffffffffffffffffffffffffffffffffffff16815260200190815260200160002060009054906101000a900460ff1615610cfc576040517f08c379a0000000000000000000000000000000000000000000000000000000008152600401610cf390611835565b60405180910390fd5b60016005600083815260200190815260200160002060003373ffffffffffffffffffffffffffffffffffffffff1673ffffffffffffffffffffffffffffffffffffffff16815260200190815260200160002060006101000a81548160ff021916908315150217905550600260008281526020019081526020016000206000815480929190610d8990611884565b9190505550610d96611124565b50565b6000600360008381526020019081526020016000205411610def576040517f08c379a0000000000000000000000000000000000000000000000000000000008152600401610de6906116de565b60405180910390fd5b60008060009054906101000a900473ffffffffffffffffffffffffffffffffffffffff1673ffffffffffffffffffffffffffffffffffffffff166370a08231336040518263ffffffff1660e01b8152600401610e4b9190611666565b602060405180830381865afa158015610e68573d6000803e3d6000fd5b505050506040513d601f19601f82011682018060405250810190610e8c919061172a565b11610ecc576040517f08c379a0000000000000000000000000000000000000000000000000000000008152600401610ec3906117a3565b60405180910390fd5b6006600082815260200190815260200160002060003373ffffffffffffffffffffffffffffffffffffffff1673ffffffffffffffffffffffffffffffffffffffff16815260200190815260200160002060009054906101000a900460ff1615610f6a576040517f08c379a0000000000000000000000000000000000000000000000000000000008152600401610f6190611835565b60405180910390fd5b60016006600083815260200190815260200160002060003373ffffffffffffffffffffffffffffffffffffffff1673ffffffffffffffffffffffffffffffffffffffff16815260200190815260200160002060006101000a81548160ff021916908315150217905550600360008281526020019081526020016000206000815480929190610ff790611884565b9190505550611004611124565b50565b3373ffffffffffffffffffffffffffffffffffffffff16600160009054906101000a900473ffffffffffffffffffffffffffffffffffffffff1673ffffffffffffffffffffffffffffffffffffffff1614611097576040517f08c379a000000000000000000000000000000000000000000000000000000000815260040161108e90611919565b60405180910390fd5b60005b81518161ffff1610156110f157600160026000848461ffff16815181106110c4576110c3611939565b5b602002602001015181526020019081526020016000208190555080806110e990611976565b91505061109a565b5050565b60056020528160005260406000206020528060005260406000206000915091509054906101000a900460ff1681565b60008060009054906101000a900473ffffffffffffffffffffffffffffffffffffffff1673ffffffffffffffffffffffffffffffffffffffff16632f745c593360006040518363ffffffff1660e01b8152600401611183929190611aa5565b602060405180830381865afa1580156111a0573d6000803e3d6000fd5b505050506040513d601f19601f820116820180604052508101906111c4919061172a565b90507f66a9138482c99e9baf08860110ef332cc0c23b4a199a53593d8db0fc8f96fbfc3330836040516111f993929190611ace565b60405180910390a160008054906101000a900473ffffffffffffffffffffffffffffffffffffffff1673ffffffffffffffffffffffffffffffffffffffff166342966c68826040518263ffffffff1660e01b815260040161125a919061146d565b600060405180830381600087803b15801561127457600080fd5b505af1158015611288573d6000803e3d6000fd5b5050505050565b600073ffffffffffffffffffffffffffffffffffffffff82169050919050565b6000819050919050565b60006112d46112cf6112ca8461128f565b6112af565b61128f565b9050919050565b60006112e6826112b9565b9050919050565b60006112f8826112db565b9050919050565b611308816112ed565b82525050565b600060208201905061132360008301846112ff565b92915050565b6000604051905090565b600080fd5b600080fd5b6000819050919050565b6113508161133d565b811461135b57600080fd5b50565b60008135905061136d81611347565b92915050565b600061137e8261128f565b9050919050565b61138e81611373565b811461139957600080fd5b50565b6000813590506113ab81611385565b92915050565b600080604083850312156113c8576113c7611333565b5b60006113d68582860161135e565b92505060206113e78582860161139c565b9150509250929050565b60008115159050919050565b611406816113f1565b82525050565b600060208201905061142160008301846113fd565b92915050565b60006020828403121561143d5761143c611333565b5b600061144b8482850161135e565b91505092915050565b6000819050919050565b61146781611454565b82525050565b6000602082019050611482600083018461145e565b92915050565b600080fd5b6000601f19601f8301169050919050565b7f4e487b7100000000000000000000000000000000000000000000000000000000600052604160045260246000fd5b6114d68261148d565b810181811067ffffffffffffffff821117156114f5576114f461149e565b5b80604052505050565b6000611508611329565b905061151482826114cd565b919050565b600067ffffffffffffffff8211156115345761153361149e565b5b602082029050602081019050919050565b600080fd5b600061155d61155884611519565b6114fe565b905080838252602082019050602084028301858111156115805761157f611545565b5b835b818110156115a95780611595888261135e565b845260208401935050602081019050611582565b5050509392505050565b600082601f8301126115c8576115c7611488565b5b81356115d884826020860161154a565b91505092915050565b6000602082840312156115f7576115f6611333565b5b600082013567ffffffffffffffff81111561161557611614611338565b5b611621848285016115b3565b91505092915050565b6000602082840312156116405761163f611333565b5b600061164e8482850161139c565b91505092915050565b61166081611373565b82525050565b600060208201905061167b6000830184611657565b92915050565b600082825260208201905092915050565b7f796f75722063686f696365206973206e6f7420612063616e6469646174650000600082015250565b60006116c8601e83611681565b91506116d382611692565b602082019050919050565b600060208201905081810360008301526116f7816116bb565b9050919050565b61170781611454565b811461171257600080fd5b50565b600081519050611724816116fe565b92915050565b6000602082840312156117405761173f611333565b5b600061174e84828501611715565b91505092915050565b7f596f7520646f6e2774206861766520616e7920766f7465206372656469747300600082015250565b600061178d601f83611681565b915061179882611757565b602082019050919050565b600060208201905081810360008301526117bc81611780565b9050919050565b7f596f75206861766520616c726561647920766f74656420746869732063616e6460008201527f6964617465000000000000000000000000000000000000000000000000000000602082015250565b600061181f602583611681565b915061182a826117c3565b604082019050919050565b6000602082019050818103600083015261184e81611812565b9050919050565b7f4e487b7100000000000000000000000000000000000000000000000000000000600052601160045260246000fd5b600061188f82611454565b91507fffffffffffffffffffffffffffffffffffffffffffffffffffffffffffffffff8214156118c2576118c1611855565b5b600182019050919050565b7f63616c6c6572206973206e6f7420746865206f776e6572200000000000000000600082015250565b6000611903601883611681565b915061190e826118cd565b602082019050919050565b60006020820190508181036000830152611932816118f6565b9050919050565b7f4e487b7100000000000000000000000000000000000000000000000000000000600052603260045260246000fd5b600061ffff82169050919050565b600061198182611968565b915061ffff82141561199657611995611855565b5b600182019050919050565b7f796f752068617665206265656e2069737375656420313420746f6b656e20616c60008201527f7265616479000000000000000000000000000000000000000000000000000000602082015250565b60006119fd602583611681565b9150611a08826119a1565b604082019050919050565b60006020820190508181036000830152611a2c816119f0565b9050919050565b600060ff82169050919050565b6000611a4b82611a33565b915060ff821415611a5f57611a5e611855565b5b600182019050919050565b6000819050919050565b6000611a8f611a8a611a8584611a6a565b6112af565b611454565b9050919050565b611a9f81611a74565b82525050565b6000604082019050611aba6000830185611657565b611ac76020830184611a96565b9392505050565b6000606082019050611ae36000830186611657565b611af06020830185611657565b611afd604083018461145e565b94935050505056fea26469706673582212203da821518dcd6b2b00a614d4c416655cde2ba21a99573cecd6c798a8be26c3c864736f6c634300080b003360806040523480156200001157600080fd5b506040518060400160405280600981526020017f566f7465546f6b656e00000000000000000000000000000000000000000000008152506040518060400160405280600581526020017f564f544b4e000000000000000000000000000000000000000000000000000000815250816000908051906020019062000096929190620001a6565b508060019080519060200190620000af929190620001a6565b505050620000d2620000c6620000d860201b60201c565b620000e060201b60201c565b620002bb565b600033905090565b6000600a60009054906101000a900473ffffffffffffffffffffffffffffffffffffffff16905081600a60006101000a81548173ffffffffffffffffffffffffffffffffffffffff021916908373ffffffffffffffffffffffffffffffffffffffff1602179055508173ffffffffffffffffffffffffffffffffffffffff168173ffffffffffffffffffffffffffffffffffffffff167f8be0079c531659141344cd1fd0a4f28419497f9722a3daafe3b4186f6b6457e060405160405180910390a35050565b828054620001b49062000285565b90600052602060002090601f016020900481019282620001d8576000855562000224565b82601f10620001f357805160ff191683800117855562000224565b8280016001018555821562000224579182015b828111156200022357825182559160200191906001019062000206565b5b50905062000233919062000237565b5090565b5b808211156200025257600081600090555060010162000238565b5090565b7f4e487b7100000000000000000000000000000000000000000000000000000000600052602260045260246000fd5b600060028204905060018216806200029e57607f821691505b60208210811415620002b557620002b462000256565b5b50919050565b6135d780620002cb6000396000f3fe608060405234801561001057600080fd5b50600436106101375760003560e01c80634f6ccce7116100b857806395d89b411161007c57806395d89b411461034c578063a22cb4651461036a578063b88d4fde14610386578063c87b56dd146103a2578063e985e9c5146103d2578063f2fde38b1461040257610137565b80634f6ccce7146102945780636352211e146102c457806370a08231146102f4578063715018a6146103245780638da5cb5b1461032e57610137565b806323b872dd116100ff57806323b872dd146101f45780632f745c591461021057806340d097c31461024057806342842e0e1461025c57806342966c681461027857610137565b806301ffc9a71461013c57806306fdde031461016c578063081812fc1461018a578063095ea7b3146101ba57806318160ddd146101d6575b600080fd5b61015660048036038101906101519190612277565b61041e565b60405161016391906122bf565b60405180910390f35b610174610430565b6040516101819190612373565b60405180910390f35b6101a4600480360381019061019f91906123cb565b6104c2565b6040516101b19190612439565b60405180910390f35b6101d460048036038101906101cf9190612480565b610547565b005b6101de61065f565b6040516101eb91906124cf565b60405180910390f35b61020e600480360381019061020991906124ea565b61066c565b005b61022a60048036038101906102259190612480565b6106cc565b60405161023791906124cf565b60405180910390f35b61025a6004803603810190610255919061253d565b610771565b005b610276600480360381019061027191906124ea565b610813565b005b610292600480360381019061028d91906123cb565b610833565b005b6102ae60048036038101906102a991906123cb565b61088f565b6040516102bb91906124cf565b60405180910390f35b6102de60048036038101906102d991906123cb565b610900565b6040516102eb9190612439565b60405180910390f35b61030e6004803603810190610309919061253d565b6109b2565b60405161031b91906124cf565b60405180910390f35b61032c610a6a565b005b610336610af2565b6040516103439190612439565b60405180910390f35b610354610b1c565b6040516103619190612373565b60405180910390f35b610384600480360381019061037f9190612596565b610bae565b005b6103a0600480360381019061039b919061270b565b610bc4565b005b6103bc60048036038101906103b791906123cb565b610c26565b6040516103c99190612373565b60405180910390f35b6103ec60048036038101906103e7919061278e565b610ccd565b6040516103f991906122bf565b60405180910390f35b61041c6004803603810190610417919061253d565b610d61565b005b600061042982610e59565b9050919050565b60606000805461043f906127fd565b80601f016020809104026020016040519081016040528092919081815260200182805461046b906127fd565b80156104b85780601f1061048d576101008083540402835291602001916104b8565b820191906000526020600020905b81548152906001019060200180831161049b57829003601f168201915b5050505050905090565b60006104cd82610ed3565b61050c576040517f08c379a0000000000000000000000000000000000000000000000000000000008152600401610503906128a1565b60405180910390fd5b6004600083815260200190815260200160002060009054906101000a900473ffffffffffffffffffffffffffffffffffffffff169050919050565b600061055282610900565b90508073ffffffffffffffffffffffffffffffffffffffff168373ffffffffffffffffffffffffffffffffffffffff1614156105c3576040517f08c379a00000000000000000000000000000000000000000000000000000000081526004016105ba90612933565b60405180910390fd5b8073ffffffffffffffffffffffffffffffffffffffff166105e2610f3f565b73ffffffffffffffffffffffffffffffffffffffff16148061061157506106108161060b610f3f565b610ccd565b5b610650576040517f08c379a0000000000000000000000000000000000000000000000000000000008152600401610647906129c5565b60405180910390fd5b61065a8383610f47565b505050565b6000600880549050905090565b61067d610677610f3f565b82611000565b6106bc576040517f08c379a00000000000000000000000000000000000000000000000000000000081526004016106b390612a57565b60405180910390fd5b6106c78383836110de565b505050565b60006106d7836109b2565b8210610718576040517f08c379a000000000000000000000000000000000000000000000000000000000815260040161070f90612ae9565b60405180910390fd5b600660008473ffffffffffffffffffffffffffffffffffffffff1673ffffffffffffffffffffffffffffffffffffffff168152602001908152602001600020600083815260200190815260200160002054905092915050565b610779610f3f565b73ffffffffffffffffffffffffffffffffffffffff16610797610af2565b73ffffffffffffffffffffffffffffffffffffffff16146107ed576040517f08c379a00000000000000000000000000000000000000000000000000000000081526004016107e490612b55565b60405180910390fd5b60006107f9600b611345565b9050610805600b611353565b61080f8282611369565b5050565b61082e83838360405180602001604052806000815250610bc4565b505050565b61084461083e610f3f565b82611000565b610883576040517f08c379a000000000000000000000000000000000000000000000000000000000815260040161087a90612be7565b60405180910390fd5b61088c81611387565b50565b600061089961065f565b82106108da576040517f08c379a00000000000000000000000000000000000000000000000000000000081526004016108d190612c79565b60405180910390fd5b600882815481106108ee576108ed612c99565b5b90600052602060002001549050919050565b6000806002600084815260200190815260200160002060009054906101000a900473ffffffffffffffffffffffffffffffffffffffff169050600073ffffffffffffffffffffffffffffffffffffffff168173ffffffffffffffffffffffffffffffffffffffff1614156109a9576040517f08c379a00000000000000000000000000000000000000000000000000000000081526004016109a090612d3a565b60405180910390fd5b80915050919050565b60008073ffffffffffffffffffffffffffffffffffffffff168273ffffffffffffffffffffffffffffffffffffffff161415610a23576040517f08c379a0000000000000000000000000000000000000000000000000000000008152600401610a1a90612dcc565b60405180910390fd5b600360008373ffffffffffffffffffffffffffffffffffffffff1673ffffffffffffffffffffffffffffffffffffffff168152602001908152602001600020549050919050565b610a72610f3f565b73ffffffffffffffffffffffffffffffffffffffff16610a90610af2565b73ffffffffffffffffffffffffffffffffffffffff1614610ae6576040517f08c379a0000000000000000000000000000000000000000000000000000000008152600401610add90612b55565b60405180910390fd5b610af060006114a4565b565b6000600a60009054906101000a900473ffffffffffffffffffffffffffffffffffffffff16905090565b606060018054610b2b906127fd565b80601f0160208091040260200160405190810160405280929190818152602001828054610b57906127fd565b8015610ba45780601f10610b7957610100808354040283529160200191610ba4565b820191906000526020600020905b815481529060010190602001808311610b8757829003601f168201915b5050505050905090565b610bc0610bb9610f3f565b838361156a565b5050565b610bd5610bcf610f3f565b83611000565b610c14576040517f08c379a0000000000000000000000000000000000000000000000000000000008152600401610c0b90612a57565b60405180910390fd5b610c20848484846116d7565b50505050565b6060610c3182610ed3565b610c70576040517f08c379a0000000000000000000000000000000000000000000000000000000008152600401610c6790612e5e565b60405180910390fd5b6000610c7a611733565b90506000815111610c9a5760405180602001604052806000815250610cc5565b80610ca48461174a565b604051602001610cb5929190612eba565b6040516020818303038152906040525b915050919050565b6000600560008473ffffffffffffffffffffffffffffffffffffffff1673ffffffffffffffffffffffffffffffffffffffff16815260200190815260200160002060008373ffffffffffffffffffffffffffffffffffffffff1673ffffffffffffffffffffffffffffffffffffffff16815260200190815260200160002060009054906101000a900460ff16905092915050565b610d69610f3f565b73ffffffffffffffffffffffffffffffffffffffff16610d87610af2565b73ffffffffffffffffffffffffffffffffffffffff1614610ddd576040517f08c379a0000000000000000000000000000000000000000000000000000000008152600401610dd490612b55565b60405180910390fd5b600073ffffffffffffffffffffffffffffffffffffffff168173ffffffffffffffffffffffffffffffffffffffff161415610e4d576040517f08c379a0000000000000000000000000000000000000000000000000000000008152600401610e4490612f50565b60405180910390fd5b610e56816114a4565b50565b60007f780e9d63000000000000000000000000000000000000000000000000000000007bffffffffffffffffffffffffffffffffffffffffffffffffffffffff1916827bffffffffffffffffffffffffffffffffffffffffffffffffffffffff19161480610ecc5750610ecb826118ab565b5b9050919050565b60008073ffffffffffffffffffffffffffffffffffffffff166002600084815260200190815260200160002060009054906101000a900473ffffffffffffffffffffffffffffffffffffffff1673ffffffffffffffffffffffffffffffffffffffff1614159050919050565b600033905090565b816004600083815260200190815260200160002060006101000a81548173ffffffffffffffffffffffffffffffffffffffff021916908373ffffffffffffffffffffffffffffffffffffffff160217905550808273ffffffffffffffffffffffffffffffffffffffff16610fba83610900565b73ffffffffffffffffffffffffffffffffffffffff167f8c5be1e5ebec7d5bd14f71427d1e84f3dd0314c0f7b2291e5b200ac8c7c3b92560405160405180910390a45050565b600061100b82610ed3565b61104a576040517f08c379a000000000000000000000000000000000000000000000000000000000815260040161104190612fe2565b60405180910390fd5b600061105583610900565b90508073ffffffffffffffffffffffffffffffffffffffff168473ffffffffffffffffffffffffffffffffffffffff1614806110c457508373ffffffffffffffffffffffffffffffffffffffff166110ac846104c2565b73ffffffffffffffffffffffffffffffffffffffff16145b806110d557506110d48185610ccd565b5b91505092915050565b8273ffffffffffffffffffffffffffffffffffffffff166110fe82610900565b73ffffffffffffffffffffffffffffffffffffffff1614611154576040517f08c379a000000000000000000000000000000000000000000000000000000000815260040161114b90613074565b60405180910390fd5b600073ffffffffffffffffffffffffffffffffffffffff168273ffffffffffffffffffffffffffffffffffffffff1614156111c4576040517f08c379a00000000000000000000000000000000000000000000000000000000081526004016111bb90613106565b60405180910390fd5b6111cf83838361198d565b6111da600082610f47565b6001600360008573ffffffffffffffffffffffffffffffffffffffff1673ffffffffffffffffffffffffffffffffffffffff168152602001908152602001600020600082825461122a9190613155565b925050819055506001600360008473ffffffffffffffffffffffffffffffffffffffff1673ffffffffffffffffffffffffffffffffffffffff16815260200190815260200160002060008282546112819190613189565b92505081905550816002600083815260200190815260200160002060006101000a81548173ffffffffffffffffffffffffffffffffffffffff021916908373ffffffffffffffffffffffffffffffffffffffff160217905550808273ffffffffffffffffffffffffffffffffffffffff168473ffffffffffffffffffffffffffffffffffffffff167fddf252ad1be2c89b69c2b068fc378daa952ba7f163c4a11628f55a4df523b3ef60405160405180910390a461134083838361199d565b505050565b600081600001549050919050565b6001816000016000828254019250508190555050565b6113838282604051806020016040528060008152506119a2565b5050565b600061139282610900565b90506113a08160008461198d565b6113ab600083610f47565b6001600360008373ffffffffffffffffffffffffffffffffffffffff1673ffffffffffffffffffffffffffffffffffffffff16815260200190815260200160002060008282546113fb9190613155565b925050819055506002600083815260200190815260200160002060006101000a81549073ffffffffffffffffffffffffffffffffffffffff021916905581600073ffffffffffffffffffffffffffffffffffffffff168273ffffffffffffffffffffffffffffffffffffffff167fddf252ad1be2c89b69c2b068fc378daa952ba7f163c4a11628f55a4df523b3ef60405160405180910390a46114a08160008461199d565b5050565b6000600a60009054906101000a900473ffffffffffffffffffffffffffffffffffffffff16905081600a60006101000a81548173ffffffffffffffffffffffffffffffffffffffff021916908373ffffffffffffffffffffffffffffffffffffffff1602179055508173ffffffffffffffffffffffffffffffffffffffff168173ffffffffffffffffffffffffffffffffffffffff167f8be0079c531659141344cd1fd0a4f28419497f9722a3daafe3b4186f6b6457e060405160405180910390a35050565b8173ffffffffffffffffffffffffffffffffffffffff168373ffffffffffffffffffffffffffffffffffffffff1614156115d9576040517f08c379a00000000000000000000000000000000000000000000000000000000081526004016115d09061322b565b60405180910390fd5b80600560008573ffffffffffffffffffffffffffffffffffffffff1673ffffffffffffffffffffffffffffffffffffffff16815260200190815260200160002060008473ffffffffffffffffffffffffffffffffffffffff1673ffffffffffffffffffffffffffffffffffffffff16815260200190815260200160002060006101000a81548160ff0219169083151502179055508173ffffffffffffffffffffffffffffffffffffffff168373ffffffffffffffffffffffffffffffffffffffff167f17307eab39ab6107e8899845ad3d59bd9653f200f220920489ca2b5937696c31836040516116ca91906122bf565b60405180910390a3505050565b6116e28484846110de565b6116ee848484846119fd565b61172d576040517f08c379a0000000000000000000000000000000000000000000000000000000008152600401611724906132bd565b60405180910390fd5b50505050565b606060405180602001604052806000815250905090565b60606000821415611792576040518060400160405280600181526020017f300000000000000000000000000000000000000000000000000000000000000081525090506118a6565b600082905060005b600082146117c45780806117ad906132dd565b915050600a826117bd9190613355565b915061179a565b60008167ffffffffffffffff8111156117e0576117df6125e0565b5b6040519080825280601f01601f1916602001820160405280156118125781602001600182028036833780820191505090505b5090505b6000851461189f5760018261182b9190613155565b9150600a8561183a9190613386565b60306118469190613189565b60f81b81838151811061185c5761185b612c99565b5b60200101907effffffffffffffffffffffffffffffffffffffffffffffffffffffffffffff1916908160001a905350600a856118989190613355565b9450611816565b8093505050505b919050565b60007f80ac58cd000000000000000000000000000000000000000000000000000000007bffffffffffffffffffffffffffffffffffffffffffffffffffffffff1916827bffffffffffffffffffffffffffffffffffffffffffffffffffffffff1916148061197657507f5b5e139f000000000000000000000000000000000000000000000000000000007bffffffffffffffffffffffffffffffffffffffffffffffffffffffff1916827bffffffffffffffffffffffffffffffffffffffffffffffffffffffff1916145b80611986575061198582611b85565b5b9050919050565b611998838383611bef565b505050565b505050565b6119ac8383611d03565b6119b960008484846119fd565b6119f8576040517f08c379a00000000000000000000000000000000000000000000000000000000081526004016119ef906132bd565b60405180910390fd5b505050565b6000611a1e8473ffffffffffffffffffffffffffffffffffffffff16611edd565b15611b78578373ffffffffffffffffffffffffffffffffffffffff1663150b7a02611a47610f3f565b8786866040518563ffffffff1660e01b8152600401611a69949392919061340c565b6020604051808303816000875af1925050508015611aa557506040513d601f19601f82011682018060405250810190611aa2919061346d565b60015b611b28573d8060008114611ad5576040519150601f19603f3d011682016040523d82523d6000602084013e611ada565b606091505b50600081511415611b20576040517f08c379a0000000000000000000000000000000000000000000000000000000008152600401611b17906132bd565b60405180910390fd5b805181602001fd5b63150b7a0260e01b7bffffffffffffffffffffffffffffffffffffffffffffffffffffffff1916817bffffffffffffffffffffffffffffffffffffffffffffffffffffffff191614915050611b7d565b600190505b949350505050565b60007f01ffc9a7000000000000000000000000000000000000000000000000000000007bffffffffffffffffffffffffffffffffffffffffffffffffffffffff1916827bffffffffffffffffffffffffffffffffffffffffffffffffffffffff1916149050919050565b611bfa838383611f00565b600073ffffffffffffffffffffffffffffffffffffffff168373ffffffffffffffffffffffffffffffffffffffff161415611c3d57611c3881611f05565b611c7c565b8173ffffffffffffffffffffffffffffffffffffffff168373ffffffffffffffffffffffffffffffffffffffff1614611c7b57611c7a8382611f4e565b5b5b600073ffffffffffffffffffffffffffffffffffffffff168273ffffffffffffffffffffffffffffffffffffffff161415611cbf57611cba816120bb565b611cfe565b8273ffffffffffffffffffffffffffffffffffffffff168273ffffffffffffffffffffffffffffffffffffffff1614611cfd57611cfc828261218c565b5b5b505050565b600073ffffffffffffffffffffffffffffffffffffffff168273ffffffffffffffffffffffffffffffffffffffff161415611d73576040517f08c379a0000000000000000000000000000000000000000000000000000000008152600401611d6a906134e6565b60405180910390fd5b611d7c81610ed3565b15611dbc576040517f08c379a0000000000000000000000000000000000000000000000000000000008152600401611db390613552565b60405180910390fd5b611dc86000838361198d565b6001600360008473ffffffffffffffffffffffffffffffffffffffff1673ffffffffffffffffffffffffffffffffffffffff1681526020019081526020016000206000828254611e189190613189565b92505081905550816002600083815260200190815260200160002060006101000a81548173ffffffffffffffffffffffffffffffffffffffff021916908373ffffffffffffffffffffffffffffffffffffffff160217905550808273ffffffffffffffffffffffffffffffffffffffff16600073ffffffffffffffffffffffffffffffffffffffff167fddf252ad1be2c89b69c2b068fc378daa952ba7f163c4a11628f55a4df523b3ef60405160405180910390a4611ed96000838361199d565b5050565b6000808273ffffffffffffffffffffffffffffffffffffffff163b119050919050565b505050565b6008805490506009600083815260200190815260200160002081905550600881908060018154018082558091505060019003906000526020600020016000909190919091505550565b60006001611f5b846109b2565b611f659190613155565b905060006007600084815260200190815260200160002054905081811461204a576000600660008673ffffffffffffffffffffffffffffffffffffffff1673ffffffffffffffffffffffffffffffffffffffff168152602001908152602001600020600084815260200190815260200160002054905080600660008773ffffffffffffffffffffffffffffffffffffffff1673ffffffffffffffffffffffffffffffffffffffff168152602001908152602001600020600084815260200190815260200160002081905550816007600083815260200190815260200160002081905550505b6007600084815260200190815260200160002060009055600660008573ffffffffffffffffffffffffffffffffffffffff1673ffffffffffffffffffffffffffffffffffffffff16815260200190815260200160002060008381526020019081526020016000206000905550505050565b600060016008805490506120cf9190613155565b90506000600960008481526020019081526020016000205490506000600883815481106120ff576120fe612c99565b5b90600052602060002001549050806008838154811061212157612120612c99565b5b9060005260206000200181905550816009600083815260200190815260200160002081905550600960008581526020019081526020016000206000905560088054806121705761216f613572565b5b6001900381819060005260206000200160009055905550505050565b6000612197836109b2565b905081600660008573ffffffffffffffffffffffffffffffffffffffff1673ffffffffffffffffffffffffffffffffffffffff168152602001908152602001600020600083815260200190815260200160002081905550806007600084815260200190815260200160002081905550505050565b6000604051905090565b600080fd5b600080fd5b60007fffffffff0000000000000000000000000000000000000000000000000000000082169050919050565b6122548161221f565b811461225f57600080fd5b50565b6000813590506122718161224b565b92915050565b60006020828403121561228d5761228c612215565b5b600061229b84828501612262565b91505092915050565b60008115159050919050565b6122b9816122a4565b82525050565b60006020820190506122d460008301846122b0565b92915050565b600081519050919050565b600082825260208201905092915050565b60005b838110156123145780820151818401526020810190506122f9565b83811115612323576000848401525b50505050565b6000601f19601f8301169050919050565b6000612345826122da565b61234f81856122e5565b935061235f8185602086016122f6565b61236881612329565b840191505092915050565b6000602082019050818103600083015261238d818461233a565b905092915050565b6000819050919050565b6123a881612395565b81146123b357600080fd5b50565b6000813590506123c58161239f565b92915050565b6000602082840312156123e1576123e0612215565b5b60006123ef848285016123b6565b91505092915050565b600073ffffffffffffffffffffffffffffffffffffffff82169050919050565b6000612423826123f8565b9050919050565b61243381612418565b82525050565b600060208201905061244e600083018461242a565b92915050565b61245d81612418565b811461246857600080fd5b50565b60008135905061247a81612454565b92915050565b6000806040838503121561249757612496612215565b5b60006124a58582860161246b565b92505060206124b6858286016123b6565b9150509250929050565b6124c981612395565b82525050565b60006020820190506124e460008301846124c0565b92915050565b60008060006060848603121561250357612502612215565b5b60006125118682870161246b565b93505060206125228682870161246b565b9250506040612533868287016123b6565b9150509250925092565b60006020828403121561255357612552612215565b5b60006125618482850161246b565b91505092915050565b612573816122a4565b811461257e57600080fd5b50565b6000813590506125908161256a565b92915050565b600080604083850312156125ad576125ac612215565b5b60006125bb8582860161246b565b92505060206125cc85828601612581565b9150509250929050565b600080fd5b600080fd5b7f4e487b7100000000000000000000000000000000000000000000000000000000600052604160045260246000fd5b61261882612329565b810181811067ffffffffffffffff82111715612637576126366125e0565b5b80604052505050565b600061264a61220b565b9050612656828261260f565b919050565b600067ffffffffffffffff821115612676576126756125e0565b5b61267f82612329565b9050602081019050919050565b82818337600083830152505050565b60006126ae6126a98461265b565b612640565b9050828152602081018484840111156126ca576126c96125db565b5b6126d584828561268c565b509392505050565b600082601f8301126126f2576126f16125d6565b5b813561270284826020860161269b565b91505092915050565b6000806000806080858703121561272557612724612215565b5b60006127338782880161246b565b94505060206127448782880161246b565b9350506040612755878288016123b6565b925050606085013567ffffffffffffffff8111156127765761277561221a565b5b612782878288016126dd565b91505092959194509250565b600080604083850312156127a5576127a4612215565b5b60006127b38582860161246b565b92505060206127c48582860161246b565b9150509250929050565b7f4e487b7100000000000000000000000000000000000000000000000000000000600052602260045260246000fd5b6000600282049050600182168061281557607f821691505b60208210811415612829576128286127ce565b5b50919050565b7f4552433732313a20617070726f76656420717565727920666f72206e6f6e657860008201527f697374656e7420746f6b656e0000000000000000000000000000000000000000602082015250565b600061288b602c836122e5565b91506128968261282f565b604082019050919050565b600060208201905081810360008301526128ba8161287e565b9050919050565b7f4552433732313a20617070726f76616c20746f2063757272656e74206f776e6560008201527f7200000000000000000000000000000000000000000000000000000000000000602082015250565b600061291d6021836122e5565b9150612928826128c1565b604082019050919050565b6000602082019050818103600083015261294c81612910565b9050919050565b7f4552433732313a20617070726f76652063616c6c6572206973206e6f74206f7760008201527f6e6572206e6f7220617070726f76656420666f7220616c6c0000000000000000602082015250565b60006129af6038836122e5565b91506129ba82612953565b604082019050919050565b600060208201905081810360008301526129de816129a2565b9050919050565b7f4552433732313a207472616e736665722063616c6c6572206973206e6f74206f60008201527f776e6572206e6f7220617070726f766564000000000000000000000000000000602082015250565b6000612a416031836122e5565b9150612a4c826129e5565b604082019050919050565b60006020820190508181036000830152612a7081612a34565b9050919050565b7f455243373231456e756d657261626c653a206f776e657220696e646578206f7560008201527f74206f6620626f756e6473000000000000000000000000000000000000000000602082015250565b6000612ad3602b836122e5565b9150612ade82612a77565b604082019050919050565b60006020820190508181036000830152612b0281612ac6565b9050919050565b7f4f776e61626c653a2063616c6c6572206973206e6f7420746865206f776e6572600082015250565b6000612b3f6020836122e5565b9150612b4a82612b09565b602082019050919050565b60006020820190508181036000830152612b6e81612b32565b9050919050565b7f4552433732314275726e61626c653a2063616c6c6572206973206e6f74206f7760008201527f6e6572206e6f7220617070726f76656400000000000000000000000000000000602082015250565b6000612bd16030836122e5565b9150612bdc82612b75565b604082019050919050565b60006020820190508181036000830152612c0081612bc4565b9050919050565b7f455243373231456e756d657261626c653a20676c6f62616c20696e646578206f60008201527f7574206f6620626f756e64730000000000000000000000000000000000000000602082015250565b6000612c63602c836122e5565b9150612c6e82612c07565b604082019050919050565b60006020820190508181036000830152612c9281612c56565b9050919050565b7f4e487b7100000000000000000000000000000000000000000000000000000000600052603260045260246000fd5b7f4552433732313a206f776e657220717565727920666f72206e6f6e657869737460008201527f656e7420746f6b656e0000000000000000000000000000000000000000000000602082015250565b6000612d246029836122e5565b9150612d2f82612cc8565b604082019050919050565b60006020820190508181036000830152612d5381612d17565b9050919050565b7f4552433732313a2062616c616e636520717565727920666f7220746865207a6560008201527f726f206164647265737300000000000000000000000000000000000000000000602082015250565b6000612db6602a836122e5565b9150612dc182612d5a565b604082019050919050565b60006020820190508181036000830152612de581612da9565b9050919050565b7f4552433732314d657461646174613a2055524920717565727920666f72206e6f60008201527f6e6578697374656e7420746f6b656e0000000000000000000000000000000000602082015250565b6000612e48602f836122e5565b9150612e5382612dec565b604082019050919050565b60006020820190508181036000830152612e7781612e3b565b9050919050565b600081905092915050565b6000612e94826122da565b612e9e8185612e7e565b9350612eae8185602086016122f6565b80840191505092915050565b6000612ec68285612e89565b9150612ed28284612e89565b91508190509392505050565b7f4f776e61626c653a206e6577206f776e657220697320746865207a65726f206160008201527f6464726573730000000000000000000000000000000000000000000000000000602082015250565b6000612f3a6026836122e5565b9150612f4582612ede565b604082019050919050565b60006020820190508181036000830152612f6981612f2d565b9050919050565b7f4552433732313a206f70657261746f7220717565727920666f72206e6f6e657860008201527f697374656e7420746f6b656e0000000000000000000000000000000000000000602082015250565b6000612fcc602c836122e5565b9150612fd782612f70565b604082019050919050565b60006020820190508181036000830152612ffb81612fbf565b9050919050565b7f4552433732313a207472616e736665722066726f6d20696e636f72726563742060008201527f6f776e6572000000000000000000000000000000000000000000000000000000602082015250565b600061305e6025836122e5565b915061306982613002565b604082019050919050565b6000602082019050818103600083015261308d81613051565b9050919050565b7f4552433732313a207472616e7366657220746f20746865207a65726f2061646460008201527f7265737300000000000000000000000000000000000000000000000000000000602082015250565b60006130f06024836122e5565b91506130fb82613094565b604082019050919050565b6000602082019050818103600083015261311f816130e3565b9050919050565b7f4e487b7100000000000000000000000000000000000000000000000000000000600052601160045260246000fd5b600061316082612395565b915061316b83612395565b92508282101561317e5761317d613126565b5b828203905092915050565b600061319482612395565b915061319f83612395565b9250827fffffffffffffffffffffffffffffffffffffffffffffffffffffffffffffffff038211156131d4576131d3613126565b5b828201905092915050565b7f4552433732313a20617070726f766520746f2063616c6c657200000000000000600082015250565b60006132156019836122e5565b9150613220826131df565b602082019050919050565b6000602082019050818103600083015261324481613208565b9050919050565b7f4552433732313a207472616e7366657220746f206e6f6e20455243373231526560008201527f63656976657220696d706c656d656e7465720000000000000000000000000000602082015250565b60006132a76032836122e5565b91506132b28261324b565b604082019050919050565b600060208201905081810360008301526132d68161329a565b9050919050565b60006132e882612395565b91507fffffffffffffffffffffffffffffffffffffffffffffffffffffffffffffffff82141561331b5761331a613126565b5b600182019050919050565b7f4e487b7100000000000000000000000000000000000000000000000000000000600052601260045260246000fd5b600061336082612395565b915061336b83612395565b92508261337b5761337a613326565b5b828204905092915050565b600061339182612395565b915061339c83612395565b9250826133ac576133ab613326565b5b828206905092915050565b600081519050919050565b600082825260208201905092915050565b60006133de826133b7565b6133e881856133c2565b93506133f88185602086016122f6565b61340181612329565b840191505092915050565b6000608082019050613421600083018761242a565b61342e602083018661242a565b61343b60408301856124c0565b818103606083015261344d81846133d3565b905095945050505050565b6000815190506134678161224b565b92915050565b60006020828403121561348357613482612215565b5b600061349184828501613458565b91505092915050565b7f4552433732313a206d696e7420746f20746865207a65726f2061646472657373600082015250565b60006134d06020836122e5565b91506134db8261349a565b602082019050919050565b600060208201905081810360008301526134ff816134c3565b9050919050565b7f4552433732313a20746f6b656e20616c7265616479206d696e74656400000000600082015250565b600061353c601c836122e5565b915061354782613506565b602082019050919050565b6000602082019050818103600083015261356b8161352f565b9050919050565b7f4e487b7100000000000000000000000000000000000000000000000000000000600052603160045260246000fdfea26469706673582212200136cd6658a8f9f60a78b2fd70ad2778426fadeb85daec4404cebd38da9e816664736f6c634300080b0033",
  "immutableReferences": {},
  "source": "// SPDX-License-Identifier: MIT\r\npragma solidity ^0.8.4;\r\n\r\n\r\nimport \"./VoteToken.sol\";\r\n\r\ncontract VoteGovernor  {\r\n    VoteToken public voteToken;\r\n\r\n    address public deployer;\r\n\r\n    mapping(bytes32 => uint256) public presidentialCandidates;\r\n    mapping(bytes32 => uint256) public vicePresidentialCandidates;\r\n    mapping(bytes32 => uint256) public senatorialCandidates;\r\n\r\n    mapping(bytes32 => mapping(address => bool)) public presidentialVotesReceived;\r\n    mapping(bytes32 => mapping(address => bool)) public vicePresidentialVotesReceived;\r\n    mapping(bytes32 => mapping(address => bool)) public senatorialVotesReceived;\r\n\r\n    mapping(address => uint8) issuedToken;\r\n\r\n\r\n    constructor(){\r\n        voteToken = new VoteToken();\r\n        deployer = msg.sender;\r\n    }\r\n\r\n    event Vote(\r\n        address from,\r\n        address to,\r\n        uint256 tokenId\r\n    );\r\n\r\n    modifier onlyOwner() {\r\n        require(deployer == msg.sender, \"caller is not the owner \");\r\n        _;\r\n    }\r\n\r\n    function setPresidentialCandidates(bytes32[] memory candidateList) public onlyOwner {\r\n        for (uint16 i =0;i<candidateList.length ; i++){\r\n            presidentialCandidates[candidateList[i]] = 1;//Deduct 1 when tallying\r\n        }\r\n    }\r\n    function setVicePresidentialCandidates(bytes32[] memory candidateList) public onlyOwner {\r\n        for (uint16 i =0;i<candidateList.length ; i++){\r\n            vicePresidentialCandidates[candidateList[i]] = 1;//Deduct 1 when tallying\r\n        }\r\n    }\r\n    function setSenatorialCandidates(bytes32[] memory candidateList) public onlyOwner {\r\n        for (uint16 i =0;i<candidateList.length ; i++){\r\n            senatorialCandidates[candidateList[i]] = 1;//Deduct 1 when tallying\r\n        }\r\n    }\r\n\r\n\r\n\r\n    // Contract Deployer will be the only one to issue token\r\n    function issueToken(address to) public onlyOwner{\r\n        require(issuedToken[to] < 14, \"you have been issued 14 token already\");\r\n        for ( uint8 i = 0 ; i<14; i++){\r\n            voteToken.safeMint(to);\r\n            issuedToken[to]++;\r\n        }\r\n    }\r\n\r\n    function votePresident(bytes32 name) public payable\r\n    {\r\n        require(presidentialCandidates[name] >0, \"your choice is not a candidate\");\r\n        require(voteToken.balanceOf(msg.sender)>0, \"You don't have any vote credits\");\r\n        require(!presidentialVotesReceived[name][msg.sender], \"You have already voted this candidate\");\r\n        presidentialVotesReceived[name][msg.sender] = true;\r\n        presidentialCandidates[name]++;\r\n        burnToken();\r\n    }\r\n\r\n    function voteVicePresident(bytes32 name) public payable\r\n    {\r\n        require(vicePresidentialCandidates[name] >0, \"your choice is not a candidate\");\r\n        require(voteToken.balanceOf(msg.sender)>0, \"You don't have any vote credits\");\r\n        require(!vicePresidentialVotesReceived[name][msg.sender], \"You have already voted this candidate\");\r\n        vicePresidentialVotesReceived[name][msg.sender] = true;\r\n        vicePresidentialCandidates[name]++;\r\n        burnToken();\r\n    }\r\n    function voteSenator(bytes32 name) public payable\r\n    {\r\n        require(senatorialCandidates[name] >0, \"your choice is not a candidate\");\r\n        require(voteToken.balanceOf(msg.sender)>0, \"You don't have any vote credits\");\r\n        require(!senatorialVotesReceived[name][msg.sender], \"You have already voted this candidate\");\r\n        senatorialVotesReceived[name][msg.sender] = true;\r\n        senatorialCandidates[name]++;\r\n        burnToken();\r\n    }\r\n\r\n     function  burnToken() private {\r\n        uint256 tokenId = voteToken.tokenOfOwnerByIndex(msg.sender,0);\r\n         emit Vote(msg.sender, address(this), tokenId);\r\n        voteToken.burn(tokenId);\r\n    }\r\n\r\n\r\n\r\n}",
  "sourcePath": "C:\\Workspace\\VotePinas\\contracts\\VoteGovernor.sol",
  "compiler": {
    "name": "solc",
    "version": "0.8.11+commit.d7f03943.Emscripten.clang"
  },
  "schemaVersion": "3.4.4",
  "updatedAt": "2022-02-21T11:56:05.047Z",
  "networkType": "ethereum",
  "devdoc": {
    "kind": "dev",
    "methods": {},
    "version": 1
  },
  "userdoc": {
    "kind": "user",
    "methods": {},
    "version": 1
  }
}